:100000000C9492010C94BA010C94BA010C94BA01AC
:100010000C94BA010C94BA010C94BA010C94BA0174
:100020000C94BA010C94BA010C94EF100C945E116C
:100030000C94BA010C94BA010C94BA010C94BA0154
:100040000C94BA010C94BA010C94BA010C94BA0144
:100050000C94BA010C94BA010C94BA010C9490134C
:100060000C94BA010C94BA010C94BA010C94BA0124
:100070000C94BA010C94BA010C94BA010C94BA0114
:100080000C94BA010C94BA010C94BA010C94BA0104
:100090000C94DA130C94BA010C94BA010C94BA01C2
:1000A0000C94BA010C94BA010C94BA01000000023D
:1000B00000090F0000030401000C00000000000014
:1000C00000000000000000000000080B0002020217
:1000D00000000904000001020200000524001001D4
:1000E0000524010101042402060524060001070578
:1000F000810310004009040100020A000000070506
:1001000002024000000705830240000004030904C6
:1001100012010002EF0201404F1B06920001010292
:100120000301537061726B46756E00537061726BA0
:1001300046756E2050726F204D6963726F002052B9
:10014000656365697665643A203078006D65617332
:100150007572655261773A20636865636B73756D7C
:10016000206661696C6564212045787065637465FB
:10017000643A203078006D656173757265526177FD
:100180003A207265717565737446726F6D20726581
:100190007475726E65643A20006D65617375726581
:1001A0005261773A20656E645472616E736D697343
:1001B00073696F6E2072657475726E65643A2000A3
:1001C00020545F7469636B733A203078006D656109
:1001D000737572655261773A2052485F7469636B38
:1001E000733A20307800676574564F43696E6465D2
:1001F000783A206D6561737572655261772072651A
:100200007475726E6564206572726F723A20006D4B
:10021000656173757265546573743A20756E65789F
:10022000706563746564207465737420726573759A
:100230006C7473212052656365697665643A203079
:1002400078002052656365697665643A20307800ED
:100250006D656173757265546573743A2063686582
:10026000636B73756D206661696C656421204578E8
:100270007065637465643A203078006D65617375EC
:100280007265546573743A2072657175657374464E
:10029000726F6D2072657475726E65643A20006DC0
:1002A000656173757265546573743A20656E645444
:1002B00072616E736D697373696F6E2072657475A8
:1002C000726E65643A200000000000250028002BB3
:1002D000002E00310000000000240027002A002D1D
:1002E00000300004040404040304050202020204B2
:1002F00003020202020606060606060404020202C1
:100300000404040802011040804010204080408016
:10031000080204018040201002011080102040409B
:1003200020002C1511241FBECFEFDAE0DEBFCDBFB9
:1003300012E0A0E0B1E0E6E6FAE402C005900D921A
:10034000AC3CB107D9F725E0ACECB2E001C01D929E
:10035000AD3BB207E1F711E0C2E9D1E004C021975B
:10036000FE010E948623C139D107C9F70E9480157A
:100370000C9431250C94000090E0FC01EE5FFC4FE2
:1003800024918D519D4FFC018491882399F090E038
:10039000880F991FFC01EB52FD4FA591B491FC0110
:1003A000E953FD4F859194918FB7F894EC91E22B2E
:1003B000EC938FBF08959095E92FF0E09F70E07F58
:1003C000FF27E35CFB4FE90FF11DE058FF4FE08191
:1003D0008E27E82FF0E08F70E07FFF27E35CFB4F74
:1003E000E80FF11DE058FF4F80810895FC018091D6
:1003F000A003882311F13FB7F89482E08093E900CD
:100400002091F200822F90E01816190614F481E072
:1004100090E0882339F0289844E640939F03409168
:10042000F1004083222339F02091F200211103C012
:100430002BE62093E8003FBF08958FEF9FEF0895CC
:100440002FB7F89483E08093E9009091E800892F1A
:10045000807295FF04C09091F20080E4891B2FBF49
:1004600008958091970381110DC082E080939303DA
:1004700084E080939403109296031092950381E098
:100480008093970383E993E0089508950895409138
:10049000870350918803209185033091860342178A
:1004A0005307B4F49091E8009570E1F39091E8005F
:1004B00092FD19C08093F100809187039091880389
:1004C00001968F739927892B19F48EEF8093E8009A
:1004D000809187039091880301969093880380937D
:1004E000870381E0089580E00895DF92EF92FF9204
:1004F0000F931F93CF93DF93D82E8A01EB017B01DB
:10050000E40EF51ECE15DF0559F0D7FE12C0FE0130
:1005100084910E94470221968111F4CF0FEF1FEFC3
:10052000C801DF91CF911F910F91FF90EF90DF9065
:1005300008958881EECF0F931F93CF93DF931F927F
:10054000CDB7DEB782E0898342E450E06AEC70E028
:1005500080E80E9475020E943102DC0112960D9122
:100560001C910115110589F0D801ED91FC910280D3
:10057000F381E02DBE016F5F7F4FC801099597FDA4
:1005800004C0F80100851185ECCF89810F90DF91BF
:10059000CF911F910F910895615030F02091F1009B
:1005A000FC0120830196F8CF289884E680939F036E
:1005B0000895EF92FF920F931F93CF93DF938C01D7
:1005C0007B01D0E0C0E0F701EC0FFD1F64916623D2
:1005D00061F0D801ED91FC910190F081E02DC8010E
:1005E0000995892B11F02196EECFCE01DF91CF91A5
:1005F0001F910F91FF90EF900895CF93DF931F927B
:10060000CDB7DEB76983DC01ED91FC910280F38107
:10061000E02D41E050E0BE016F5F7F4F09950F90E4
:10062000DF91CF91089583E08093E9008091F200FB
:10063000882319F08AE38093E80008950E9420023D
:1006400090E00895CF93DF931F92CDB7DEB7FC0102
:100650008485958597FD08C02FEF3FEF3587248768
:100660000F90DF91CF910895CE0101960E94F6017F
:10067000019719F4898190E0F3CF8FEF9FEFF0CFCE
:100680000F931F93CF93DF931F92CDB7DEB78C01EB
:10069000FC018485958597FF0BC0CE0101960E94D1
:1006A000F601019771F4898190E0F80195878487BC
:1006B000F801848595850F90DF91CF911F910F915F
:1006C00008958FEF9FEFF1CFFC018485958597FD0D
:1006D0000BC09FB7F89482E08093E9008091F2000C
:1006E0009FBF90E0019608959FB7F89482E08093B1
:1006F000E9008091F2009FBF90E00895282F30E03C
:10070000F901E455FF4F9491F901EE5FFC4F84919C
:100710002D513D4FF9012491222309F430C0992332
:10072000E9F091509F30D0F4E92FF0E0E656FC4F0D
:100730000C948623C803CC03A903C003C403AE03EF
:10074000AE03AE03CF03D503D903DD03E303AE034A
:10075000E703909180009F7790938000E22FF0E074
:10076000EE0FFF1FE953FD4FA591B4919FB7F89489
:10077000EC91611132C080958E238C939FBF0895B8
:10078000909180009F7DE8CF90918000977FE4CF8B
:1007900094B59F7794BDE2CF94B59F7DFBCF9091A8
:1007A00090009F7790939000D9CF909190009F7D7B
:1007B000F9CF90919000977FF5CF9091C0009F77EF
:1007C0009093C000CBCF9091C0009F7DF9CF9091C6
:1007D000C200977F9093C200C1CF8E2BCECF3FB780
:1007E000F8948091810390918203A0918303B0914A
:1007F000840326B5A89B05C02F3F19F00196A11DC3
:10080000B11D3FBFBA2FA92F982F8827BC01CD015A
:10081000620F711D811D911D42E0660F771F881FB9
:10082000991F4A95D1F708958F929F92AF92BF92E8
:10083000CF92DF92EF92FF924B015C010E94EF0397
:100840006B017C010E94EF036C197D098E099F09E1
:10085000683E734081059105A8F321E0821A910852
:10086000A108B10888EEC80E83E0D81EE11CF11C77
:1008700081149104A104B10429F7FF90EF90DF9057
:10088000CF90BF90AF909F908F9008958F929F923E
:10089000AF92BF92CF92DF92EF92FF920F931F938E
:1008A000CF93DF936C017B018A0180910B01882338
:1008B00009F45CC08091A003882309F457C080919B
:1008C0008B0380FF05C08091E00082608093E00090
:1008D000E801B12C8AEFA82E93E0892E2AE3922E0C
:1008E000209711F4BB20D9F10E94200281110AC087
:1008F000AA94AA20D9F161E070E080E090E00E9423
:100900001404EECF8C171D0611F00CF08C2F9FB73E
:10091000F8948092E9002091E80025FD02C09FBF75
:10092000DFCF282F30E0C21BD30BF701815020F01E
:1009300041914093F100FACFE20EF31EBB2021F06B
:100940009092E800B12CEBCF8091E80085FDE7CFD5
:100950009092E800BB24B394209709F3F3CF5D98FD
:1009600084E680938A03101611063CF081E090E043
:10097000F6019383828310E000E0C801DF91CF91FC
:100980001F910F91FF90EF90DF90CF90BF90AF90AD
:100990009F908F900895CF92DF92EF92FF920F93E6
:1009A0001F93DC01CB0140E050E060E070E484176D
:1009B0009507A607B707F8F000E010E09801411589
:1009C00051056105710541F16A017B01C00ED11E1F
:1009D000E21EF31E36952795179507958C159D05F4
:1009E000AE05BF0580F4E2E076956795579547958B
:1009F000EA95D1F7E4CF12E076956795579547953C
:100A00001A95D1F7D4CF8C199D09AE09BF09040FEF
:100A1000151F261F371FE7CFB8015527442700971A
:100A2000E1E0AE07B105E0F5DC019927882700E099
:100A300010E420E030E068017901C40ED51EE61E06
:100A4000F71E76956795579547958C159D05AE05CC
:100A5000BF0540F08C199D09AE09BF09400F511F19
:100A6000621F731FE2E03695279517950795EA9563
:100A7000D1F70115110521053105E9F64817590788
:100A80006A077B0720F44F5F5F4F6F4F7F4FCB01AB
:100A9000BA011F910F91FF90EF90DF90CF900895D2
:100AA000801B910BA20BB30BDC0199278827905870
:100AB000A109B10950586F4F7F4FB9CF4F925F9244
:100AC0006F927F928F929F92AF92BF92CF92DF925E
:100AD000EF92FF920F931F936B017C0149015A0122
:100AE00081149104A104B10409F499C0DC01CB0183
:100AF000F7FE07C088279927DC018C199D09AE09EC
:100B0000BF092C013D01B501A401B7FE07C0442770
:100B10005527BA01481959096A097B0900E010E014
:100B200021E030E0481759076A077B0708F454C0F2
:100B3000011511052105310509F471C077FF6BC05E
:100B400084179507A607B70708F44FC02C013D018D
:100B5000441A550A660A770AD901C801769567953D
:100B600057954795369527951795079501151105C2
:100B70002105310529F04114510461047104C9F5BE
:100B8000441655066606770618F00196A11DB11D9C
:100B9000BC01CD01C824D924EA24FB24F7FE0DC0F2
:100BA00061157105810520E8920739F090958095CF
:100BB000709561957F4F8F4F9F4F1F910F91FF90C1
:100BC000EF90DF90CF90BF90AF909F908F907F90ED
:100BD0006F905F904F900895440F551F661F771FC9
:100BE000000F111F221F331F9DCF80E090E0DC011A
:100BF000B5CF441655066606770640F0802B912B3C
:100C0000A22BB32B441A550A660A770A440C551CCA
:100C1000661C771CA7CF80E090E0DC01A7CF60E0E6
:100C200070E080E090E8C9CFCF92DF92EF92FF9220
:100C3000CF93DF93CDE3D4E01EA21FA218A619A67E
:100C40001AA61BA61CA61DA61EA622E130E040E0A7
:100C500050E06DE874E080E090E00E945E0581E382
:100C60009CE0A3E0B0E08FAB98AFA9AFBAAF8DE83E
:100C700096E0A0E0B0E08BAF9CAFADAFBEAF1092FE
:100C80007C0410927D0410927E0410927F041092D6
:100C900080041092810410928204109283041092B6
:100CA0008404109285041092860410928704109296
:100CB00088041092890410928A0410928B04109276
:100CC0008C0410928D0410928E0410928F04109256
:100CD0009004109291041092920410929304109236
:100CE0009404109295041092960410929704109216
:100CF00098041092990410929A0410929B042A85E9
:100D00003B854C855D85CA88DB88EC88FD888E85AF
:100D10009F85A889B9898AA39BA3ACA3BDA3CFA6AD
:100D2000D8AAE9AAFAAA2E5E3F4F4F4F5F4F6DE84F
:100D300074E080E090E00E945E056BAB7CAB8DAB15
:100D40009EABC0929C04D0929D04E0929E04F092CF
:100D50009F041092A0041092A1041092A204109279
:100D6000A3048E819F81A885B9858093A404909364
:100D7000A504A093A604B093A70481E39CE0A0E09F
:100D8000B0E08093A8049093A904A093AA04B09320
:100D9000AB0483E890E0A0E0B0E08093AC049093D3
:100DA000AD04A093AE04B093AF041092B004DF91F1
:100DB000CF91FF90EF90DF90CF9008954F925F9288
:100DC0006F927F928F929F92AF92BF92CF92DF925B
:100DD000EF92FF920F931F93CF93DF93CDB7DEB7C0
:100DE00028970FB6F894DEBF0FBECDBF2C01772435
:100DF00057FC7094672C7A011127F7FC1095012F8E
:100E0000ED82FE820F8318874B015C01AA24BB246C
:100E100069017A01EE24FF24A3019201C701B60102
:100E20000E94542369837A838B839C832D813E8126
:100E30004F815885C501B4010E94542309811A814C
:100E40002B813C81060F171F281F391F09831A8326
:100E50002B833C83A5019401C701B6010E94542352
:100E60006B017C0109811A812B813C814901BB24E2
:100E700097FCB094AB2CA30192016D817E818F8190
:100E800098850E945423860E971EA81EB91E0981BC
:100E90001A812B813C81D801992788278C0D9D1DB3
:100EA000AE1DBF1D8C159D05AE05BF0528F41FEFB7
:100EB000811A910AA10AB10AB501A401770F440B66
:100EC000542FBA01750164013FE0F594E794D7947B
:100ED000C7943A95D1F74C155D056E057F05D9F598
:100EE0006C017D0120E8D21AE108F1084C0D5D1D6E
:100EF0006E1D7F1D84179507A607B70728F431E0FC
:100F0000831A9108A108B108540199248824AB01DF
:100F100066277727CB01BA01682979298A299B2975
:100F20006F5F7F4F8F4F9F4F28960FB6F894DEBFAD
:100F30000FBECDBFDF91CF911F910F91FF90EF902A
:100F4000DF90CF90BF90AF909F908F907F906F90E9
:100F50005F904F90089560E070E080E090E8E4CF0B
:100F60008F929F92AF92BF92CF92DF92EF92FF92B9
:100F70000F931F93CF93DF936B017C018FEAC81609
:100F800085E6D8068AE0E806F1040CF04BC08EE650
:100F9000C81687E3D80684EFE8068FEFF8060CF44E
:100FA00046C0CCE1D2E0F7FE0AC0F094E094D094C1
:100FB000C094C11CD11CE11CF11CCCE0D2E08E011C
:100FC000005F1F4F60E070E081E090E0812C912C89
:100FD0005401A394C814D904EA04FB04C4F423E024
:100FE000B594A794979487942A95D1F724960C17D3
:100FF0001D0781F7DF91CF911F910F91FF90EF9027
:10100000DF90CF90BF90AF909F908F9008952881F0
:1010100039814A815B810E94DE06C818D908EA0836
:10102000FB08D8CF6FEF7FEF8FEF9FE7E3CF60E054
:1010300070E0CB01DFCFCF92DF92EF92FF920F9360
:101040001F93009198041091990420919A04309173
:101050009B046B017C01C01AD10AE20AF30AA701C2
:1010600096016091940470919504809196049091FA
:1010700097040E94DE06611571052EEC82072FEFA2
:1010800092077CF460919004709191048091920495
:10109000909193041F910F91FF90EF90DF90CF906C
:1010A00008956130710522E382079105B4F40E942E
:1010B000B0079B01AC014F5F5F4F6091900470914E
:1010C000910480919204909193041F910F91FF904D
:1010D000EF90DF90CF900C945E0560E070E0CB0164
:1010E000D9CF20913203260F3327331F2132310508
:1010F000ECF420915603FC0190E080E0243069F08C
:1011000082E00895A09132032191AC014E5E5C4FC4
:10111000A40FB52FB11D2C930196861798F38091DB
:101120003203680F6093320380E0089581E00895F0
:101130001092560381E0809358031092570361E0A8
:1011400082E00E947E0361E083E00E947E03E9EB7F
:10115000F0E080818E7F808380818D7F808388E432
:101160008093B80085E48093BC000895CF93DF930B
:1011700091E0909311038823B9F0C091B800D09109
:10118000BA008091BC008A7B8093BC0060E082E062
:101190000E947E0360E083E00E947E030E94980824
:1011A000D093BA00C093B800DF91CF91089508950D
:1011B000E091920380919103E81730F4F0E0E4515C
:1011C000FD4F808190E008958FEF9FEF08959091FB
:1011D0009203809191032FEF3FEF981748F4E92F86
:1011E000F0E0E451FD4F208130E09F5F9093920347
:1011F000C90108958091910390919203891B990BE5
:101200000895CF92DF92EF92FF920F931F93CF93A7
:10121000DF937C01CB018A012091A503222389F071
:10122000EB016B01C40ED51ECC15DD0569F069918B
:10123000D701ED91FC910190F081E02DC701099556
:10124000F3CF642F0E947108C801DF91CF911F91E5
:101250000F91FF90EF90DF90CF900895CF93DF93A1
:101260001F92CDB7DEB769832091A5032223F9F041
:101270002091A203203258F021E030E0FC013383BA
:10128000228390E080E00F90DF91CF9108958091CC
:10129000A303E82FF0E0E453FD4F998190838F5F23
:1012A0008093A3038093A20381E090E0ECCF61E000
:1012B000CE0101960E947108F7CFCF92DF92EF9294
:1012C000FF920F931F93CF93DF93D091A20381E0FE
:1012D000D13208F09CC0C091A4030E94EF036B01BF
:1012E0007C018091560381116CC082E0809356038B
:1012F00081E0809358038FEF8093550310927A0317
:10130000D0937903ACECB2E0E9E5F3E080E0D813E8
:101310008DC010927B0380917B03CC0FC82BC093B0
:101320007B0380915703813009F084C010925703EA
:101330000E94EF036B017C0180917B038093BB00D3
:1013400080910D0390910E03A0910F03B0911003B3
:10135000892B8A2B8B2BA1F00E94EF0300910D03A8
:1013600010910E0320910F03309110036C197D0929
:101370008E099F09061717072807390708F442C086
:101380008091BC0083FDD8CF85EC8093BC000E9487
:10139000EF036B017C0180915603823009F44CC04D
:1013A000809155038F3F09F469C0809155038032C5
:1013B00009F466C080915503803309F463C084E06A
:1013C00026C080910D0390910E03A0910F03B09160
:1013D0001003892B8A2B8B2B09F483CF0E94EF03F8
:1013E00000910D0310910E0320910F033091100313
:1013F0006C197D098E099F090617170728073907F9
:1014000008F06FCF80910C030E94B60885E010921F
:10141000A3031092A2031092A503DF91CF911F9115
:101420000F91FF90EF90DF90CF9008959D91919351
:101430008F5F6DCF85EEA9CF80910D0390910E0344
:10144000A0910F03B0911003892B8A2B8B2B09F4E9
:10145000A2CF0E94EF0300910D0310910E03209183
:101460000F03309110036C197D098E099F0906172F
:1014700017072807390708F08ECFC4CF80E0C7CF01
:1014800082E0C5CF83E0C3CF90E080E00895089567
:101490008EBD00000DB407FEFDCF8EB508958CBD46
:1014A0009DBD0895CF93DF93D82FC62F809102045E
:1014B000882329F0813089F1DF91CF91089520911F
:1014C00036042130C9F78091370490913804309167
:1014D00003042093A5033093A4031092A303109256
:1014E000A203DC01ED91FC910190F081E02D6D2FC4
:1014F00009958091370490913804DC01ED91FC91BD
:101500000190F081E02D6C2F099580913704909126
:101510003804DF91CF910C945D098091050490917E
:1015200006040E944F0A60E0809104040E947E033A
:101530008D2F8F770E94480A8C2F0E94480A61E005
:1015400080910404DF91CF910C947E03CF92DF92BF
:10155000EF92FF920F931F93CF93DF93D62FC42F59
:101560000E94EF036B017C0180915603811165C0DD
:1015700081E080935603809358039FEF9093550327
:1015800010927A039C0F9093790380937B03809150
:101590007B03DD0FD82BD0937B03809157038130E1
:1015A00009F07FC0109257030E94EF036B017C018A
:1015B00080917B038093BB0080910D0390910E037B
:1015C000A0910F03B0911003892B8A2B8B2BA1F0D4
:1015D0000E94EF0300910D0310910E0320910F0361
:1015E000309110036C197D098E099F0906171707A2
:1015F0002807390708F442C08091BC0083FDD8CF8A
:1016000085EC8093BC000E94EF036B017C0180910C
:101610005603813009F447C080917A038C1710F487
:10162000C0917A03A9E5B3E0ECEEF2E080E08C171C
:1016300051F19D9191938F5FFACF80910D0390911D
:101640000E03A0910F03B0911003892B8A2B8B2BD3
:1016500009F48ACF0E94EF0300910D0310910E034D
:1016600020910F03309110036C197D098E099F0999
:10167000061717072807390708F076CF80910C0363
:101680000E94B608C0E010929203C09391038C2F81
:10169000DF91CF911F910F91FF90EF90DF90CF904E
:1016A000089585EEAECF80910D0390910E03A09129
:1016B0000F03B0911003892B8A2B8B2B09F4A7CF32
:1016C0000E94EF0300910D0310910E0320910F0370
:1016D000309110036C197D098E099F0906171707B1
:1016E0002807390708F093CFC9CFFF920F931F93B4
:1016F000CF93DF93182FF92EC62F042F8091020469
:10170000882349F0813009F44FC0DF91CF911F91B8
:101710000F91FF900895209136042130B1F7809108
:10172000370490913804309103042093A50330933B
:10173000A4031092A3031092A203DC01ED91FC918B
:101740000190F081E02D0995809137049091380443
:101750000E945D09402F60910304809137049091AD
:1017600038040E94A60AC12FDF2D80913704909182
:101770003804DC01ED91FC910084F185E02D0995A0
:10178000892B19F28C2F811B801708F0BECF809116
:10179000370490913804DC01ED91FC910284F385CB
:1017A000E02D09958993E1CF80910504909106047D
:1017B0000E944F0A60E0809104040E947E038C2FF7
:1017C0000E94480AC12FDF2D80E00E94480A8993B9
:1017D0008C2F811B8017C0F361E080910404DF919E
:1017E000CF911F910F91FF900C947E03CF93DF93C5
:1017F0001F92CDB7DEB7682F19828091020488232B
:1018000041F0813009F447C089810F90DF91CF9179
:101810000895209136042130B9F7809137049091D2
:101820003804309103042093A5033093A40310924D
:10183000A3031092A203DC01ED91FC910190F081D1
:10184000E02D099580913704909138040E945D093C
:1018500041E06091030480913704909138040E9424
:10186000A60A8091370490913804DC01ED91FC9137
:101870000084F185E02D0995892B31F280913704A0
:1018800090913804DC01ED91FC910284F385E02D08
:1018900009958983E6CF41E0CE0101960E94750B40
:1018A000B3CFCF93C82F843008F0C0E084EF0E94FC
:1018B000F60B8C7F682F6C2B84EFCF910C94520A1F
:1018C000CF93DF9362E070E080E090E00E94140428
:1018D00080910204813009F039C0CFB7F89480912B
:1018E000A103811124C0E4EFF2E08491E3E1F3E08D
:1018F0009491E82FF0E0EE0FFF1FEB52FD4FA59102
:10190000B491EC91E92321F461E081E10E947E032E
:1019100081E10E94BC018CB580618CBD8CB5806476
:101920008CBD8FE00E94BC0180E10E94BC018091CF
:10193000A1038F5F8093A103CFBF809104040E9415
:10194000BC0161E0809104040E947E0380ED0E944E
:10195000F60B883519F0803609F0AAC189E80E9493
:10196000F60BC82F88E80E94F60B2C2F30E0322FA0
:101970002227820F932F911D9093120480931104BC
:101980008BE80E94F60BC82F8AE80E94F60B2C2FDA
:1019900030E0322F2227820F932F911D9093140451
:1019A000809313048DE80E94F60BC82F8CE80E94E8
:1019B000F60B2C2F30E0322F2227820F932F911D10
:1019C00090931604809315048FE80E94F60BC82F9D
:1019D0008EE80E94F60B2C2F30E0322F2227820F48
:1019E000932F911D909318048093170481E90E940E
:1019F000F60BC82F80E90E94F60B2C2F30E0322F17
:101A00002227820F932F911D90931A04809319041B
:101A100083E90E94F60BC82F82E90E94F60B2C2F57
:101A200030E0322F2227820F932F911D90931C04B8
:101A300080931B0485E90E94F60BC82F84E90E945D
:101A4000F60B2C2F30E0322F2227820F932F911D7F
:101A500090931E0480931D0487E90E94F60BC82F03
:101A600086E90E94F60B2C2F30E0322F2227820FBE
:101A7000932F911D9093200480931F0489E90E9465
:101A8000F60BC82F88E90E94F60B2C2F30E0322F7E
:101A90002227820F932F911D90932204809321047B
:101AA0008BE90E94F60BC82F8AE90E94F60B2C2FB7
:101AB00030E0322F2227820F932F911D9093240420
:101AC000809323048DE90E94F60BC82F8CE90E94B5
:101AD000F60B2C2F30E0322F2227820F932F911DEF
:101AE00090932604809325048FE90E94F60BC82F5B
:101AF0008EE90E94F60B2C2F30E0322F2227820F26
:101B0000932F911D909328048093270481EA0E94CB
:101B1000F60B8093290482EE0E94F60BC82F81EE0B
:101B20000E94F60B2C2F30E0322F2227820F932FAA
:101B3000911D90932B0480932A0483EE0E94F60B50
:101B400080932C0484EE0E94F60BC82F85EE0E9431
:101B5000F60B90E1C99FE00111248F708C0F9D2F2F
:101B6000911D90932E0480932D0486EE0E94F60B17
:101B7000C82F85EE0E94F60B90E1C99FE001112469
:101B800090E054E0959587955A95E1F78C0F9D1F4D
:101B90009093300480932F0487EE0E94F60B80937D
:101BA0003104C0910804C83008F0C0E085EF0E94FD
:101BB000F60B90E2C99FB00111248F71682B85EF5D
:101BC0000E94520AC0910904C83008F0C0E085EFB5
:101BD0000E94F60B94E0C99FB0011124837E682B0C
:101BE00085EF0E94520AE0910B04C1E0E13120F43C
:101BF000F0E0E95CFD4FC08184EF0E94F60BD82F26
:101C000080E00E94510C84EF0E94F60B94E0C99F83
:101C1000B0011124837E682B84EF0E94520A8D2F1D
:101C200083700E94510CE0910C04C1E0E13120F47A
:101C3000F0E0E95CFD4FC08184EF0E94F60BD82FE5
:101C400080E00E94510C82EF0E94F60B887F682F83
:101C50006C2B82EF0E94520A8D2F83700E94510CD0
:101C6000E0910A04C1E0E13120F4F0E0E95CFD4FCD
:101C7000C08184EF0E94F60BD82F80E00E94510CA7
:101C800084EF0E94F60B90E2C99FB00111248F717E
:101C9000682B84EF0E94520A8D2F83700E94510C92
:101CA00083E00E94510C80EDDF91CF910C94F60BF4
:101CB000DF91CF910895FB0101900020E9F7319762
:101CC000AF01461B570BDC01ED91FC910280F381C3
:101CD000E02D09948F929F92AF92BF92EF92FF9264
:101CE0000F931F93CF93DF93CDB7DEB7A1970FB6B6
:101CF000F894DEBF0FBECDBF7C01FA01CB0119A263
:101D0000223008F42AE08E010F5D1F4F822E912CA5
:101D1000B12CA12CBF01A50194010E946423F901FB
:101D2000CA016A300CF5605DD8016E938D01232BDA
:101D3000242B252B79F790E080E0109721F0BD014E
:101D4000C7010E945B0EA1960FB6F894DEBF0FBECE
:101D5000CDBFDF91CF911F910F91FF90EF90BF907A
:101D6000AF909F908F900895695CDECF0F931F9383
:101D7000CF93DF93EC01242F462F50E070E060E01A
:101D80000E946A0E8C016CE672E0CE010E945B0E2E
:101D9000800F911FDF91CF911F910F9108950F93A5
:101DA0001F93CF93DF9380913D0490913E04209147
:101DB000420431E03093A5032093A4031092A303BF
:101DC0001092A203DC01ED91FC910280F381E02DE1
:101DD00042E050E065E372E0099580913D04909106
:101DE0003E040E945D09C82F8823E9F080914104D8
:101DF000811107C082E090E0DF91CF911F910F9198
:101E000008956FE972E080913F04909140040E9430
:101E1000D9024AE050E06C2F80913F049091400439
:101E20000E94B60EE7CF60E471E080E090E00E948F
:101E3000140443E06091420480913D0490913E047B
:101E40000E94A60AC82F833039F0809141046BE7C5
:101E500072E0882379F2D7CF80913D0490913E04BF
:101E6000DC01ED91FC910284F385E02D0995D82FDA
:101E7000B0E0CB2F80913D0490913E04DC01ED91C8
:101E8000FC910284F385E02D0995C82BD92B809114
:101E90003D0490913E04DC01ED91FC910284F385B8
:101EA000E02D0995182FCE010E94DB01181771F162
:101EB00080914104882339F160E572E080913F040C
:101EC000909140040E94D902CE010E94DB01482F6C
:101ED00050E070E060E020E180913F049091400488
:101EE0000E946A0E62E472E080913F049091400487
:101EF0000E94D90240E150E0612F80913F0490910F
:101F000040040E94B60E81E090E076CF90E080E041
:101F1000C115B4EDDB0709F46FCF8091410488232C
:101F2000C1F06FE072E080913F04909140040E9404
:101F3000D90200913F0410914004AE0170E060E0CE
:101F400020E1C8010E946A0E6CE672E0C8010E949E
:101F50005B0E83E090E050CFCF92DF92EF92FF9242
:101F60000F931F93CF93DF93EC016A017B01E8810C
:101F7000F9810190F081E02D6DE209958C014427F3
:101F80005527BA014C195D096E097F092AE0CE0177
:101F90000E946A0E800F911FDF91CF911F910F91C8
:101FA000FF90EF90DF90CF9008954F925F926F92E5
:101FB0007F928F929F92AF92BF92CF92DF92EF92D9
:101FC000FF920F931F93CF936B017C01742EAC0192
:101FD0009B010E944F236FE672E0811126C04601EB
:101FE0005701E894B7F82FEF3FEF4FE75FE7C501E0
:101FF000B4010E944F2381110CC02FEF3FEF4FE738
:102000005FE7C501B4010E94312163E772E0181651
:1020100064F02FEF3FEF4FE75FE4C701B6010E9486
:10202000DD221816ACF467E772E086EA93E0CF9100
:102030001F910F91FF90EF90DF90CF90BF90AF90E6
:102040009F908F907F906F905F904F900C945B0E5D
:102050002FEF3FEF4FE75FECC701B6010E94312140
:1020600087FDE1CF20E030E0A901C701B6010E9461
:10207000312110E000E087FF0AC06DE286EA93E0BC
:102080000E94FD028C01F7FAF094F7F8F094C0E09A
:1020900060E070E080E09FE37C1641F020E030E0FB
:1020A00040E251E40E943621CF5FF6CFA7019601AE
:1020B0000E94C5202B013C010E94A8214B015C011C
:1020C0002AE0BC01A40186EA93E00E946A0E7C012A
:1020D000E00EF11ECC23D1F1C501B4010E94DD2137
:1020E0009B01AC01C301B2010E94C4204B015C0101
:1020F0006EE286EA93E00E94FD02E80EF91EC150EE
:1021000028F120E030E040E251E4C501B4010E9432
:10211000E2222B013C010E94A8214B01B12CA12CF1
:102120002AE0B501A40186EA93E00E946A0EE80E57
:10213000F91EC501B4010E94DD219B01AC01C30160
:10214000B2010E94C4204B015C01D9CFC701CF91DD
:102150001F910F91FF90EF90DF90CF90BF90AF90C5
:102160009F908F907F906F905F904F90089585ED36
:102170008093BC0080910D0390910E03A0910F03FA
:10218000B09110030796A11DB11D23E0B695A79548
:10219000979587952A95D1F72091BC0024FD03C01F
:1021A00010925603089540910D0350910E036091D3
:1021B0000F0370911003452B462B472B69F30097B3
:1021C000A105B10541F02AE22A95F1F700C0019777
:1021D000A109B109E1CF80910C030C94B6081F92BC
:1021E0000F920FB60F9211248F939F938091E1006D
:1021F0009091E100937F9093E10083FF0FC01092D4
:10220000E90091E09093EB001092EC0092E3909340
:10221000ED001092A00398E09093F00082FF22C09E
:1022200093E09093E9009091F200992319F09AE3DA
:102230009093E80090918A03992341F090918A034A
:10224000915090938A03911101C05D9A90919F03E0
:10225000992341F090919F03915090939F03911186
:1022600001C0289A84FF18C08091E2008E7E8160B0
:102270008093E2008091E1008F7E8093E100809165
:102280008B038E7E806180938B039F918F910F9043
:102290000FBE0F901F90189580FFF7CF8091E2003E
:1022A0008E7E80618093E2008091E1008E7E80933B
:1022B000E10080918B038E7E8160E5CF1F920F92AB
:1022C0000FB60F921124CF92DF92EF92FF920F93ED
:1022D0001F932F933F934F935F936F937F938F93AE
:1022E0009F93AF93BF93EF93FF93CF93DF93CDB7BC
:1022F000DEB76C97DEBFCDBF1092E9008091E80099
:1023000083FF25C068E0CE0145960E94CC0282EF93
:102310008093E8008D8987FF39C09091E80090FF95
:10232000FCCF982F907609F034C19E894F89588D43
:102330002F89F88C911131C0803861F580918C0320
:102340008093F1001092F1008EEF8093E8006C967C
:102350000FB6F894DEBF0FBECDBFDF91CF91FF91D6
:10236000EF91BF91AF919F918F917F916F915F910D
:102370004F913F912F911F910F91FF90EF90DF9020
:10238000CF900F900FBE0F901F9018959EEF9093D7
:10239000E800C7CF1092F100D5CF913059F48111E8
:1023A000D3CF4130510581F680918C038D7F80938E
:1023B0008C03CACF933049F48111C6CF4130510507
:1023C00019F680918C038260F2CF953041F48091B0
:1023D000E80080FFFCCF20682093E300B5CF963063
:1023E00009F0A9C00B8D1C8D22E01092E90010921B
:1023F000880310928703F2122EC010928603109267
:1024000085030E949B021F8299E09983FA8291E0E2
:102410009E8390EA98879AEF99872091870330915D
:102420008803275F3F4F3C832B838D831092E90005
:1024300010928803109287031093860300938503FC
:1024400049E050E0BE016F5F7F4F80E00E9475025F
:102450000E949B0279CF10938603009385030E940C
:102460003102DC0112960D911C910115110509F440
:1024700051C1D801ED91FC910480F581E02DBE01A0
:102480006B5E7F4FC8010995009709F03EC1F801C6
:1024900000851185EACFF3E0FF120EC08F898823F3
:1024A00009F440C0823061F440E862E18BE291E0DF
:1024B0000E94F914811148CF81E28093EB0047CF4D
:1024C000813029F440E868E082E291E0F1CF833086
:1024D00099F70E943102DC011296ED90FC908E017A
:1024E0000F5F1F4F6801E114F10479F0D701ED91FE
:1024F000FC910680F781E02DB801C7010995080F0E
:10250000111DF701E084F184EECFD8011C92F60191
:1025100001900020E9F73197BF016C197D0940E077
:10252000C601C6CF6CE071E0FB01449150E080E849
:102530000E94750209CF973009F4BECF983021F47C
:1025400081E08093F10000CF993009F0FDCE8370D7
:1025500009F0B2CFEDE2F2E081E031E096E32191C3
:10256000222371F08093E9003093EB00DF01119793
:102570002C912093EC009093ED008F5F873079F7DA
:102580008EE78093EA001092EA008F898093A0037F
:10259000DBCE8B8D9C8D1092E900109288031092F7
:1025A00087039093860380938503898D811192C060
:1025B0008E899D89913A49F4813209F07DCF47E0B7
:1025C00050E064E071E080E0B3CF913209F074CF65
:1025D000833269F48F89988DB0E0A0E08093000188
:1025E00090930101A0930201B0930301ADCE80321C
:1025F00069F48091E80082FFFCCF67E084E091E01D
:102600000E94CC028BEF8093E8009ECE823209F0CC
:102610009BCE8F8980930B01EEEFFFE7859194911C
:102620008B3F9C4D51F1E0E0F8E0809104019091E6
:102630000501A0910601B0910701803B9440A105DE
:10264000B105F1F480910B0180FD1AC0EE3F8AE0E4
:10265000F80789F587E797E7918380838091600089
:102660008093890388E19BE00FB6F894A895809346
:1026700060000FBE9093600067CEEEEFFAE0D5CF1A
:10268000808191818737974709F05ECEA895809128
:10269000600088618093600080918903809360006E
:1026A000EE3F2AE0F20789F08091FE0A9091FF0A3E
:1026B0009183808349CE808191818737980751F239
:1026C0009093FF0A8093FE0AC5CF1092FF0A1092E2
:1026D000FE0A3ACE0E943102DC0112960D911C9145
:1026E0000115110509F4E8CED801ED91FC91019096
:1026F000F081E02DBE016B5E7F4FC801099581110D
:1027000023CEF80100851185EBCF181619060CF4BD
:102710001BCED2CEF1E0FF12BECE60E171E004CF5D
:102720001F920F920FB60F9211242F933F938F9306
:102730009F93AF93BF9380917D0390917E03A0916F
:102740007F03B091800330917C0323E0230F2D376A
:1027500058F50196A11DB11D20937C0380937D0344
:1027600090937E03A0937F03B093800380918103B5
:1027700090918203A0918303B09184030196A11DDF
:10278000B11D8093810390938203A0938303B09340
:102790008403BF91AF919F918F913F912F910F90A3
:1027A0000FBE0F901F90189526E8230F0296A11DCB
:1027B000B11DD2CF1F920F920FB60F9211242F93FB
:1027C0003F934F935F936F937F938F939F93AF93B9
:1027D000BF93EF93FF938091B900887F803609F40F
:1027E0004AC0F0F5883209F4A7C018F5803109F421
:1027F0009BC0B8F4882309F4F9C0883009F494C068
:10280000FF91EF91BF91AF919F918F917F916F91C8
:102810005F914F913F912F910F900FBE0F901F909E
:102820001895883109F488C0803251F78093550398
:1028300014C0803409F49DC040F48033B9F3883368
:10284000F9F68093550385ECB0C0803509F485C056
:10285000883509F496C0883499F60E94B710D0CF15
:10286000883909F48CC038F5883729F050F4883657
:1028700011F0803729F683E08093560310925403B9
:1028800057C0883809F47BC0803919F0803809F0C6
:10289000B7CF80915403803208F071C0E0915403A7
:1028A00081E08E0F809354038091BB00F0E0EC5CDC
:1028B000FC4F80833DC0803B39F0E0F4803A09F45E
:1028C00079C0883A09F09CCF84E080935603109237
:1028D000330310923203E0918F03F0919003099536
:1028E0008091320381110FC081E0809332031092F6
:1028F000120309C0803C09F4A6CF883C09F4A3CF99
:10290000883B09F07DCFE091330381E08E0F809307
:102910003303F0E0EE5EFC4F80818093BB0090912A
:1029200033038091320329C080917B038093BB00E5
:1029300085EC8093BC0064CF90917A0380917903F9
:10294000981758F5E0917A0381E08E0F80937A030F
:10295000F0E0E75AFC4F8081E9CFE0917A0381E013
:102960008E0F80937A038091BB00F0E0E75AFC4F12
:10297000808390917A03809179039817C8F285E853
:10298000D8CFE0917A0381E08E0F80937A03809113
:10299000BB00F0E0E75AFC4F80838091580381111F
:1029A0005CCF81E08093570384EA8093BC0010924F
:1029B000560326CF85EC8093BC001092560380917D
:1029C0005403803230F4E0915403F0E0EC5CFC4FAF
:1029D00010826091540370E0E0918D03F0918E03BA
:1029E00084E393E00995109254030ACF10925503A3
:1029F00034CFEF92FF920F931F93CF93DF93F82E74
:102A0000192FE62E042F81E0860F880F0E944702BF
:102A100083E00E944702CF2DD12FEC0EFD2EF11C3A
:102A2000CE15DF05B9F007FF13C0FE0184910E94A7
:102A30004702182F80E00E944702812321968111CE
:102A4000EFCFDF91CF911F910F91FF90EF900895FD
:102A50008881EDCF81E0F5CFCF93DF93E6EAF3E015
:102A60001382128288EE93E0A0E0B0E08483958325
:102A7000A683B7832CE432E0318320832FEF3FEF2E
:102A800035872487C6EFD3E01B821A828C839D830F
:102A9000AE83BF838EE592E099838883EDE3F4E013
:102AA000148289E5858380E0ECE0F1E0ADEBB4E0F1
:102AB00001900D928A95E1F7E2E0F4E082E58383EC
:102AC00081E0848384AB40E856EE65EC77E447AB65
:102AD00050AF61AF72AF108297E79183D6ABC5ABB1
:102AE0009AE0928393E0958316821782808781878C
:102AF00082871386148615861686DF91CF910895F6
:102B0000CF93DF93CDB7DEB7A9970FB6F894DEBFAA
:102B10000FBECDBF789484B5826084BD84B58160DA
:102B200084BD85B5826085BD85B5816085BD809198
:102B30006E00816080936E00109281008091810010
:102B40008260809381008091810081608093810008
:102B500080918000816080938000809191008260EC
:102B60008093910080919100816080939100809189
:102B700090008160809390008091C1008460809378
:102B8000C1008091C10082608093C1008091C1002A
:102B900081608093C1008091C30081608093C300F5
:102BA0008091C00082608093C0008091C2008160EB
:102BB0008093C20080917A00846080937A00809133
:102BC0007A00826080937A0080917A00816080939D
:102BD0007A0080917A00806880937A001092A00336
:102BE00010928C0310928B038091D70081608093A8
:102BF000D70080EA8093D80089B5806189BD89B506
:102C0000826089BD09B400FEFDCF61E070E080E024
:102C100090E00E9414048091D8008F7C80618093A2
:102C2000D8008091E000807F8093E0008091E100F7
:102C30008E7E8093E1008DE08093E200559A209A89
:102C40008FEF9FEF9093B3038093B20310929203A0
:102C5000109291031092A3031092A2030E9498086D
:102C600085E492E09093900380938F0386E492E052
:102C700090938E0380938D0386EF93E090933E04B0
:102C800080933D0480E090E0A4E6B0E080934304AC
:102C900090934404A0934504B093460480E090E0F0
:102CA000ACE0B0E08093470490934804A0934904BB
:102CB000B0934A0480E090E0A4EBB0E080934B0432
:102CC00090934C04A0934D04B0934E0480E090E0A8
:102CD000A2E3B0E080934F0490935004A09351047A
:102CE000B09352041092530410925404109255045D
:102CF00010925604109257041092580410925904DE
:102D000010925A0410925B0410925C0410925D04BD
:102D100010925E040E9414060E94CF0E892B09F4C3
:102D200064C06BE772E086EA93E00E945B0E6CE69B
:102D300072E086EA93E00E945B0E06EF13E0412CFE
:102D4000512CF4E66F2E712C812C912CACE0AA2E24
:102D5000B12CC12CD12CB4EBEB2EF12C10933E04F2
:102D600000933D0440924304509244046092450411
:102D7000709246048092470490924804A0924904BD
:102D8000B0924A04C0924B04D0924C04E0924D049D
:102D9000F0924E0420E030E042E350E020934F04F4
:102DA00030935004409351045093520410925304B2
:102DB0001092540410925504109256041092570425
:102DC000109258041092590410925A0410925B0405
:102DD00010925C0410925D0410925E040E9414062E
:102DE0000E94CF0E892B09F0B9CF0E94600C81118F
:102DF00010C061EA72E086EA93E00E945B0E6CE626
:102E000072E086EA93E00E945B0E0E94600C8823C9
:102E1000E1F380914104882361F16DEC71E08091D0
:102E20003F04909140040E94D90220E14FEF5FE7F8
:102E300060E070E080913F04909140040E946A0E2F
:102E400060EC71E080913F04909140040E94D902AF
:102E500000913F041091400420E146E656E660E010
:102E600070E0C8010E946A0E6CE672E0C8010E9420
:102E70005B0E80913D0490913E042091420431E02C
:102E80003093A5032093A4031092A3031092A203EE
:102E9000DC01ED91FC910280F381E02D42E050E0F5
:102EA00063E372E0099580913D0490913E04DC015A
:102EB000ED91FC910190F081E02D6FE709958091F3
:102EC0003D0490913E04DC01ED91FC910190F08174
:102ED000E02D6FEF099500913D0410913E048FEFB6
:102EE0009FE70E94DB01D801ED91FC910190F081F8
:102EF000E02D682FC801099580913D0490913E0412
:102F0000DC01ED91FC910190F081E02D66E60995E0
:102F100080913D0490913E04DC01ED91FC91019083
:102F2000F081E02D66E6099500913D0410913E0484
:102F300086E696E60E94DB01D801ED91FC910190B6
:102F4000F081E02D682FC801099580913D04909192
:102F50003E040E945D09182F882359F08091410496
:102F600069E971E081111DC04CE95FEF6FEF7FEF00
:102F7000A0C06EE170E080E090E00E94140443E0A5
:102F80006091420480913D0490913E040E94A60A03
:102F9000182F8330A9F180914104882329F366E733
:102FA00071E080913F04909140040E94D9024AE070
:102FB00050E0612F80913F04909140040E94B60E32
:102FC000E2E0EE2EF12C80914104882369F266EE56
:102FD00071E080913F04909140040E94D9020091D9
:102FE0003F0410914004A70170E060E02AE0C801AE
:102FF0000E946A0E6CE672E0C8010E945B0EB4CFBC
:1030000080913D0490913E04DC01ED91FC9102849D
:10301000F385E02D09958F8F1E8E80913D04909150
:103020003E04DC01ED91FC910284F385E02D0995CD
:103030000E8D1F8D082B192B80913D0490913E041D
:10304000DC01ED91FC910284F385E02D0995F82EC9
:10305000C8010E94DB01F81292C380915304909141
:103060005404A0915504B0915604813091052DE28D
:10307000A207B1050CF0B2C311968093530490934C
:103080005404A0935504B093560440915B045091AE
:103090005C0460915D0470915E0450586F4F7F4FE7
:1030A000AB01772757FD7095672F77FD02C00C9411
:1030B000B92086EA93E00E94AC0F68EC72E086EAE1
:1030C00093E00E945B0E42E06DEFCE0101960E94FC
:1030D000750B40903204509033046090340470902B
:1030E00035040CE2501A01E0600A7108C980DA80E8
:1030F000DC24CD24DC24F12CE12C8EE0CC0CDD1C76
:10310000EE1CFF1C8A95D1F780912D0490912E041E
:10311000092E000CAA0BBB0B24E1880F991FAA1FD4
:10312000BB1F2A95D1F7C81AD90AEA0AFB0AA0914F
:103130002F04B0913004A30192010E949723C61A74
:10314000D70AE80AF90A10E4D10EE11CF11C6FE07D
:10315000F594E794D794C7946A95D1F7A0912C047D
:10316000B0E00E948C234B015C017BE0B594A794F6
:10317000979487947A95D1F720E8920EA11CB11C00
:10318000A09131040A2E000CBB0B92010E949723E0
:10319000EAE09595879577956795EA95D1F7A5012A
:1031A00094010E9454239B01AC01FAE05595479588
:1031B00037952795FA95D1F7405E5F4FA0912A0485
:1031C000B0912B040E949723705E8F4F9F4FAEE00B
:1031D0009595879577956795AA95D1F7A70196015B
:1031E0000E9454236B017C01BFE0959587957795EC
:1031F0006795BA95D1F79B01AC010E9454239B01BE
:10320000AC0117E055954795379527951A95D1F755
:10321000A0912904B0E00E948C2304E09595879545
:10322000779567950A95D1F7C61AD70AE80AF90A79
:10323000F7FE03C0C12CD12C7601C701B601613065
:103240007105810539E1930724F060E070E080E0CA
:1032500099E11CE095958795779567951A95D1F733
:103260000E94DF2120E030E040E85AE30E94E222A1
:1032700042E00E94D50F68EC72E086EA93E00E947B
:103280005B0E43E067EFCE0101960E94750B8091C3
:10329000320490913304A0913404B09135046C0150
:1032A0007D01FF0CCC08DC2C76019C01AD016C2D5E
:1032B0007C2D8C2D9C2D345F414051096109710991
:1032C0008109910928873C834C875C8B688B788FB8
:1032D000898F9A8F59016A017B018C010E949F237B
:1032E0002B8F3C8F4D8F5DA36EA37FA388A799A7DB
:1032F00030911A0420911904932F990F990B492F9B
:10330000592F692F792F892F0E949F230CE00E944B
:10331000CE2419012A013B014C0130911C0420915B
:103320001B04932F990F990BAB8CBC8CCD8CDDA01B
:10333000EEA0FFA008A519A5492F592F692F792FB5
:10334000892F0E949F2308E00E94E7245101620117
:10335000730184010E94042570588F4F9F4F209065
:103360001704309018045101C12CD12CE12CF12C00
:1033700000E010E00E949F2301E20E94E72428A3BE
:1033800039A34AA35BA36CA3272E382E492EA0E0B5
:103390000E94162509F4F4C63091220420912104DC
:1033A000932F990F990BAB8CBC8CCD8CDDA0EEA02C
:1033B000FFA008A519A5492F592F692F792F892F0B
:1033C0000E949F232B8F3C8F4D8F552E3B014C012C
:1033D0003091200420911F04932F990F990BA884FA
:1033E000BC80CC84DC88E888F88C098D1A8D492F44
:1033F000592F692F792F892F0E949F2301E10E9465
:10340000CE24AB8CBC8CCD8CD52C730184010E9456
:10341000042559016A017B01582E192F8A8190E0F9
:10342000B0E0A0E034E0880F991FAA1FBB1F3A95B7
:10343000D1F72B8122952F70822B498150E070E0CB
:1034400060E0ECE0440F551F661F771FEA95D1F747
:10345000482B592B6A2B7B2B80E090E0A0E1B0E059
:10346000841B950BA60BB70B3C014D01990C66080C
:10347000762C43019C01AD01662D762D862D962D6F
:103480000FE10E94CE2439014A01B62FA72FF82F51
:10349000E92F30911E0420911D04932F990F990B51
:1034A000492F592F692F792F892F03E20E94CE24AB
:1034B000052D0E94042559016A017B018C019301AD
:1034C000A4016B2F7A2F8F2F9E2F0E940D25A5E32D
:1034D000AA2EBCE0BB2EC12CD12CE12CF12C00E09B
:1034E00010E00E949F23A8A0B9A0CAA0DBA0ECA076
:1034F000F22C032D142D0E94F92328873C834C873E
:103500005C8B688B788F898F9A8F0DE00E94E724FF
:10351000322E432E542E652E762E872E982E292E4F
:103520003091280420912704932F990F990BA32CF5
:10353000B42CC52CD62CE72CF82C092D122D492F94
:10354000592F692F792F892F0E949F230E949F2333
:1035500009E10E94E724A884BC80CC84DC88E88848
:10356000F88C098D1A8D0E94042519012A013B014E
:103570004C013091260420912504932F990F990B2B
:10358000492F592F692F792F892F0E949F2303E1FB
:103590000E94E72459016A017B018C019101A2017B
:1035A000B301C4010E94042508E00E94E7245901E8
:1035B0006A017B01E82F192F309124042091230404
:1035C000932F990F990B492F592F692F792F892FF5
:1035D00004E00E94CE240E2F0E9404250E94D721D1
:1035E00020E030E040E85BE30E94E22242E00E94FB
:1035F000D50F68EC72E086EA93E00E945B0E43E030
:103600006AEFCE0101960E94750B898190E0B0E0CF
:10361000A0E02CE0880F991FAA1FBB1F2A95D1F7A5
:103620004A8150E070E060E034E0440F551F661FAF
:10363000771F3A95D1F7842B952BA62BB72B2B818F
:1036400022952F70822B409111045091120470E04A
:1036500060E06C017D01E4E0F594E794D794C794B1
:10366000EA95D1F7C41AD50AE60AF70AF3E0B59548
:10367000A79597958795FA95D1F7440F551F661F23
:10368000771F2C013D01441A550A660A770AA301E7
:103690009201A0911304B09114040E9497234B014E
:1036A0005C010BE0B594A794979487940A95D1F7A1
:1036B000A7019601C701B6010E9454239B01AC01EA
:1036C0008CE055954795379527958A95D1F7A09128
:1036D0001504B09116040E9497239B01AC019EE053
:1036E00055954795379527959A95D1F7280D391D0A
:1036F0004A1D5B1D209332043093330440933404FD
:1037000050933504A5E0B0E00E948C2360587F4FB1
:103710008F4F9F4F672F782F892F992787FD9A9575
:103720000E94DF2120E030E048EC52E40E94362184
:1037300020910D0430910E0440910F04509110041B
:103740000E94C52042E00E94D50F6AEC72E086EA32
:1037500093E00E945B0E68EE73E080E090E00E94D0
:1037600014046DE672E086EA93E00E945B0E80E04E
:1037700090E0892B09F44DCB0E9400004ACB809148
:103780004104882339F16CE471E080913F04909109
:1037900040040E94D902C8010E94DB01482F50E07A
:1037A00070E060E020E180913F04909140040E942D
:1037B0006A0E6EE371E080913F04909140040E9494
:1037C000D90240E150E06F2D80913F049091400478
:1037D0000E94B60EEE24E394F12CF5CBC801B0E0C4
:1037E000A0E0AC01BD014150510961097109473E9A
:1037F0005D4F61057105E8F401321E4408F4F0C123
:1038000080325EEC9507A105B10524F08FE19EECB6
:10381000A0E0B0E080529E44A109B109DC019927E3
:1038200088278093570490935804A0935904B09329
:103830005A04409057045090580460905904709076
:103840005A04488659866A867B8680919C049091AA
:103850009D04A0919E04B0919F0420E030E044E2DA
:103860005FEF281B390B4A0B5B0B8091A0049091F2
:10387000A104A091A204B091A304481A590A6A0AAB
:103880007B0AC301B2010E945E0520E030E046EEF3
:1038900050E00E94DE064B015C0180925B04909236
:1038A0005C04A0925D04B0925E04AC019B01455D96
:1038B000510966E57EEF8FEF9FEF0E94DE066B01F8
:1038C0007C01C114D1040EECE0060FEFF0060CF4FD
:1038D000A9C111E0C116D10412E3E106F1040CF014
:1038E000A8C14090A4045090A5046090A6047090D4
:1038F000A704B7FC7AC1A301920160E070E085E003
:1039000090E00E94DE0620E030E044EF51E0261B0C
:10391000370B480B590BCA01B90120E030E044E0F5
:1039200050E00E945E054B015C01C701B6010E9498
:10393000B0079B01AC014F5F5F4FC501B4018C50D4
:103940009E4F0E945E056B017C01C818D908EA08E9
:10395000FB08C0925B04D0925C04E0925D04F0929C
:103960005E048091B00481111BC0C092B104D0925A
:10397000B204E092B304F092B404C092B504D092C1
:10398000B604E092B704F092B804C092B904D092A1
:10399000BA04E092BB04F092BC0481E08093B004CE
:1039A0008090A8049090A904A090AA04B090AB04C1
:1039B0002091B1043091B2044091B3045091B40409
:1039C00060E070E081E090E0681979098A099B095C
:1039D0000E94DE062B013C01A7019601C501B4013E
:1039E0000E94DE06460E571E681E791E4092B104E4
:1039F0005092B2046092B3047092B4048090AC040C
:103A00009090AD04A090AE04B090AF042091B504A6
:103A10003091B6044091B7045091B80460E070E072
:103A200081E090E0681979098A099B090E94DE0605
:103A30006C837D838E839F83A7019601C501B401AA
:103A40000E94DE068C809D80AE80BF80860E971E11
:103A5000A81EB91E8092B5049092B604A092B70435
:103A6000B092B804A3019201281939094A095B09E7
:103A700057FF07C050954095309521953F4F4F4FC8
:103A80005F4F6DEC7CEC8FEF9FEF0E94DE060E9493
:103A9000B0079B01AC0160E070E080EE91E00E9415
:103AA000DE069B01AC014B5E5F4F60E070E081E0A1
:103AB00090E00E945E052B013C012091B9043091F9
:103AC000BA044091BB045091BC0460E070E081E016
:103AD00090E064197509860997090E94DE064B017A
:103AE0005C01A7019601C301B2010E94DE06860EA9
:103AF000971EA81EB91E8092B9049092BA04A09293
:103B0000BB04B092BC0480925B0490925C04A092CF
:103B10005D04B0925E04811430E89306A104B10400
:103B20000CF08BC080E090E8A0E0B0E080935B04F4
:103B300090935C04A0935D04B0935E044884598420
:103B40006A847B8414141504160417040CF00DC346
:103B50008091630481117CC081E080936304888438
:103B60009984AA84BB848092680490926904A0928C
:103B70006A04B0926B04109264041092650410926F
:103B80006604109267048091640490916504A0918A
:103B90006604B09167044091680450916904609193
:103BA0006A0470916B04840F951FA61FB71F409184
:103BB0006C0450916D0460916E0470916F04409399
:103BC0009C0450939D0460939E0470939F04809383
:103BD000A0049093A104A093A204B093A30455CA97
:103BE00081E29EE4A0E0B0E015CE0E94B0079B0108
:103BF000AC014F5F5F4F60E070E084EF91E00E94A6
:103C00005E056B017C0120E030E044E650E0C3013A
:103C1000B2010E945E05A70196010E94DE066B01BB
:103C20007C0197CEC12CD12C54EFE52EFF24F394C8
:103C300090CEC12CD12C76018CCE688479848A8474
:103C40009B8416141704180419040CF481CF1DCAA0
:103C5000E0905B04F0905C0400915D0410915E04C0
:103C6000EC82FD820E831F834091640450916504B1
:103C70006091660470916704DB01CA010197AC4949
:103C8000BF4F8F3F9F4FA74CB105E0F08091680474
:103C900090916904A0916A04B0916B04840F951F00
:103CA000A61FB71F8093680490936904A0936A04C9
:103CB000B0936B0410926404109265041092660431
:103CC000109267048091680490916904A0916A043D
:103CD000B0916B04488459846A847B84481A590AD9
:103CE0006A0A7B0A488659866A867B8680918404A4
:103CF00090918504A0918604B091870400970EEFFF
:103D0000A0070FE7B0074CF41196809384049093BA
:103D10008504A0938604B0938704809188049091D1
:103D20008904A0918A04B0918B0400971EEFA1072B
:103D30001FE7B1074CF4119680938804909389048F
:103D4000A0938A04B0938B0420E030E041E050E07F
:103D500020939004309391044093920450939304E1
:103D60008FE892E0A0E0B0E08093940490939504F3
:103D7000A0939604B0939704412C512C3CE8632EF9
:103D80003AE0732E409298045092990460929A04FB
:103D900070929B0440908404509085046090860447
:103DA00070908704C301B2010E941B086C877D8755
:103DB0008E879F87C0907004D0907104E090720449
:103DC000F09073046091740470917504809176048E
:103DD000909177046C197D098E099F092C853D858A
:103DE0004E855F850E94DE0646015701860E971EAE
:103DF000A81EB91E888A998AAA8ABB8A80908804DC
:103E000090908904A0908A04B0908B04C501B401FD
:103E10000E941B089B01AC0160E070E08AEA90E020
:103E20000E94DE060AE017E120E030E000939404EF
:103E30001093950420939604309397048C5A9E4FC8
:103E4000609398047093990480939A0490939B04D0
:103E50006C817D818E819F810E941B086C8B7D8B84
:103E60008E8B9F8B288939894A895B890E94DE065F
:103E7000688B798B8A8B9B8B60937C0470937D0419
:103E800080937E0490937F042FE832E040E050E07E
:103E90002093940430939504409396045093970490
:103EA00080E090E0A4E6B4E18093980490939904B4
:103EB000A0939A04B0939B04C301B2010E941B0813
:103EC0009B01AC014C845D846E847F842419350988
:103ED00046095709609178047091790480917A04B9
:103EE00090917B046C197D098E099F090E94DE0662
:103EF000C60ED71EE81EF91EC501B4010E941B089C
:103F00009B01AC0160E070E08AEA90E00E94DE066E
:103F10004AE0642E47E1742E812C912C6092940427
:103F20007092950480929604909297048C5A9E4FBA
:103F3000609398047093990480939A0490939B04DF
:103F40006C817D818E819F810E941B08A701960153
:103F50000E94DE066C837D838E839F836093800442
:103F6000709381048093820490938304C0908C04A6
:103F7000D0908D04E0908E04F0908F0460E070E0AB
:103F800081E090E08C889D88AE88BF8868197909A7
:103F90008A099B092DEC3CE441E050E00E94DE06DA
:103FA0009B01AC012D5C3C444109510964E474E07F
:103FB00080E090E00E94DE06C60ED71EE81EF91EC5
:103FC000F7FCC3C0C0928C04D0928D04E0928E04A2
:103FD000F0928F0440918C0450918D0460918E0476
:103FE00070918F0480915F0490916004A0916104AE
:103FF000B091620484179507A607B70744F410929E
:1040000088041092890410928A0410928B04E09024
:104010006404F09065040091660410916704EC86D6
:10402000FD860E871F87688579858A859B856E1931
:104030007F09800B910B20E030E040E450E00E94CB
:104040005E056B017C0140906C0450906D046090A3
:104050006E0470906F04F7FE81C0D301C2018C1909
:104060009D09AE09BF09812C912C5401A39401979D
:10407000A04AB5402CF0812C912C94E0A92EB12CB3
:10408000A501940160E070E080E490E00E94DE060B
:104090009B01AC01C301B2010E945E059B01AC0112
:1040A000C301B2010E94DE062B013C01A70196016B
:1040B0006C817D818E819F810E94DE06A501940125
:1040C0000E945E05A70196010E94DE06640D751D23
:1040D000861D971D0E94CB042B013C0120E030E09F
:1040E00040E450E08C819D81AE81BF81281B390B5B
:1040F0004A0B5B0BC501B4010E94DE060E94CB0493
:10410000A30192010E94DE0660936C0470936D041B
:1041100080936E0490936F04A70196016889798952
:104120008A899B890E94DE064C845D846E847F842C
:10413000640D751D861D971D60936404709365045E
:1041400080936604909367041ECD10928C041092A5
:104150008D0410928E0410928F043CCFDC01CB01B1
:10416000840D951DA61DB71D7ECF41E050E060E097
:1041700070E02AE086EA93E00E946A0E0C945D18D3
:1041800060E070E0CB0132CA5058BB27AA270E94DA
:10419000DC200C94A3220E94952238F00E949C22DD
:1041A00020F039F49F3F19F426F40C9482220EF487
:1041B000E095E7FB0C947C22E92F0E94B42258F38F
:1041C000BA17620773078407950720F079F4A6F5FC
:1041D0000C94D6220EF4E0950B2EBA2FA02D0B01D5
:1041E000B90190010C01CA01A0011124FF27591B3C
:1041F00099F0593F50F4503E68F11A16F040A22F42
:10420000232F342F4427585FF3CF469537952795B2
:10421000A795F0405395C9F77EF41F16BA0B620BB1
:10422000730B840BBAF09150A1F0FF0FBB1F661FF8
:10423000771F881FC2F70EC0BA0F621F731F841F3B
:1042400048F4879577956795B795F7959E3F08F061
:10425000B0CF9395880F08F09927EE0F9795879523
:1042600008950E94582208F481E008950E944A218E
:104270000C94A3220E949C2258F00E94952240F0A8
:1042800029F45F3F29F00C947C2251110C94D72221
:104290000C9482220E94B42268F39923B1F355232F
:1042A00091F3951B550BBB27AA2762177307840749
:1042B00038F09F5F5F4F220F331F441FAA1FA9F3DF
:1042C00035D00E2E3AF0E0E832D091505040E695CD
:1042D000001CCAF72BD0FE2F29D0660F771F881F2E
:1042E000BB1F261737074807AB07B0E809F0BB0B21
:1042F000802DBF01FF2793585F4F3AF09E3F510535
:1043000078F00C947C220C94D7225F3FE4F3983E23
:10431000D4F3869577956795B795F7959F5FC9F71D
:10432000880F911D9695879597F90895E1E0660F9E
:10433000771F881FBB1F621773078407BA0720F017
:10434000621B730B840BBA0BEE1F88F7E095089580
:104350000E94BC2288F09F5798F0B92F9927B75137
:10436000B0F0E1F0660F771F881F991F1AF0BA9519
:10437000C9F714C0B13091F00E94D622B1E008957F
:104380000C94D622672F782F8827B85F39F0B93F71
:10439000CCF3869577956795B395D9F73EF49095CC
:1043A0008095709561957F4F8F4F9F4F089597FB34
:1043B00016F40E9485220C941B22E89409C097FBF6
:1043C0003EF490958095709561957F4F8F4F9F4FEC
:1043D0009923A9F0F92F96E9BB279395F695879530
:1043E00077956795B795F111F8CFFAF4BB0F11F4F3
:1043F00060FF1BC06F5F7F4F8F4F9F4F16C088239A
:1044000011F096E911C0772321F09EE8872F762FCF
:1044100005C0662371F096E8862F70E060E02AF010
:104420009A95660F771F881FDAF7880F96958795FC
:1044300097F90895E894F92F96EBFF2381F012166F
:1044400013061406440B9395F69587957795679513
:1044500057954040FF23B9F71BC09927089588233B
:1044600051F49850D2F7872B762F652F542F432F76
:10447000322F20E0B1F3121613061406440B8823E2
:104480003AF09A95440F551F661F771F881FCAF789
:1044900055234AF4440F551F11F460FF04C06F5FA9
:1044A0007F4F8F4F9F4F880F9695879597F9089567
:1044B000990F0008550FAA0BE0E8FEEF1616170635
:1044C000E807F907C0F012161306E407F50798F09D
:1044D000621B730B840B950B39F40A2661F0232BB6
:1044E000242B252B21F408950A2609F4A140A69532
:1044F0008FEF811D811D089597F99F6780E870E017
:1045000060E008959FEF80EC0895909580957095F8
:10451000609550954095309521953F4F4F4F5F4F97
:104520006F4F7F4F8F4F9F4F089500240A941616A8
:10453000170618060906089500240A941216130691
:10454000140605060895092E0394000C11F488231F
:1045500052F0BB0F40F4BF2B11F460FF04C06F5F3B
:104560007F4F8F4F9F4F089557FD9058440F551F11
:1045700059F05F3F71F04795880F97FB991F61F0E5
:104580009F3F79F087950895121613061406551F5C
:10459000F2CF4695F1DF08C0161617061806991FC8
:1045A000F1CF86957105610508940895E894BB27BD
:1045B00066277727CB0197F908950E94582208F4BF
:1045C0008FEF08950E94F5220C94A3220E94952259
:1045D00038F00E949C2220F0952311F00C947C224C
:1045E0000C94822211240C94D7220E94B42270F3DE
:1045F000959FC1F3950F50E0551F629FF001729F88
:10460000BB27F00DB11D639FAA27F00DB11DAA1F96
:10461000649F6627B00DA11D661F829F2227B00DE3
:10462000A11D621F739FB00DA11D621F839FA00D6E
:10463000611D221F749F3327A00D611D231F849FBE
:10464000600D211D822F762F6A2F11249F57504015
:104650009AF0F1F088234AF0EE0FFF1FBB1F661F90
:10466000771F881F91505040A9F79E3F510580F059
:104670000C947C220C94D7225F3FE4F3983ED4F351
:10468000869577956795B795F795E7959F5FC1F7FD
:10469000FE2B880F911D9695879597F908950E9496
:1046A0005822880B990B0895DB018F939F930E94EA
:1046B0008C23BF91AF91A29F800D911DA39F900D60
:1046C000B29F900D11240895A1E21A2EAA1BBB1BC4
:1046D000FD010DC0AA1FBB1FEE1FFF1FA217B307CE
:1046E000E407F50720F0A21BB30BE40BF50B661FE4
:1046F000771F881F991F1A9469F7609570958095A8
:1047000090959B01AC01BD01CF010895EE0FFF1FF5
:104710000590F491E02D09940E942225A59F900D0B
:10472000B49F900DA49F800D911D11240895B7FF93
:104730000C948C230E948C23821B930B0895DF938F
:10474000CF931F930F939A9DF02D219FF00D8B9D7A
:10475000F00D8A9DE02DF10D039FF00D029FE00DFD
:10476000F11D4E9DE00DF11D5E9DF00D4F9DF00D74
:104770007F936F93BF92AF925F934F93D5010E9447
:1047800022258B01AC01D7010E942225EB01E80F05
:10479000F91FD6010E94EE232F913F91D6010E946E
:1047A0002225C60FD71FE81FF91FAF91BF910E94A6
:1047B000EE232F913F910E942225C60FD71FE81F9D
:1047C000F91FD6010E942225E60FF71F9801BE01AE
:1047D000CF010F911F91CF91DF9108950E94222563
:1047E000460F571FC81FD91F08F4319608956894C3
:1047F00001C0E894F92FF12B12F00C942B24A0E0C7
:10480000B0E0E5E0F4E20C949D24092E059422F436
:104810000E948724112392F4F0E80F26FFEFE09422
:10482000F09400951095B094C094D094A194BF0AD0
:10483000CF0ADF0AEF0AFF0A0F0B1F0B0E94362474
:1048400007FC0E948724CDB7DEB7ECE00C94B924B6
:10485000689401C0E8948F929F92CF93DF930E9457
:104860003624DF91CF919F908F90089588249924CA
:10487000F401E401B0E49F93AA279A158B049C04E9
:10488000ED05FE05CF05D007A10798F4AD2FDC2F6D
:10489000CF2FFE2FE92D982C892E982F872F762F3A
:1048A000652F542F432F322F2227B85031F7BF9155
:1048B00027C01B2EBF91BB27220F331F441F551F3C
:1048C000661F771F881F991F881C991CEE1FFF1FEA
:1048D000CC1FDD1FAA1FBB1F8A149B04EC05FD051E
:1048E000CE05DF05A007B10748F08A189B08EC0940
:1048F000FD09CE09DF09A00BB10B21601A94E1F686
:104900002EF49401AF01BE01CD01000C0895609515
:1049100070958095909530954095509521953F4F95
:104920004F4F5F4F6F4F7F4F8F4F9F4F08952F9285
:104930003F924F925F926F927F928F929F92AF922F
:10494000BF92CF92DF92EF92FF920F931F93CF937C
:10495000DF93CDB7DEB7CA1BDB0B0FB6F894DEBF13
:104960000FBECDBF09942A88398848885F846E8439
:104970007D848C849B84AA84B984C884DF80EE8083
:10498000FD800C811B81AA81B981CE0FD11D0FB68C
:10499000F894DEBF0FBECDBFED010895002E0830A4
:1049A00090F0982F872F762F652F542F432F322F7B
:1049B00022270850F4CF220F331F441F551F661FB4
:1049C000771F881F991F0A95B2F7002D089597FD4C
:1049D0001094002E083098F00850232F342F452FC4
:1049E000562F672F782F892F912DF4CF15949795F7
:1049F00087957795679557954795379527950A95A4
:104A0000AAF71124002D08952A0D3B1D4C1D5D1D94
:104A10006E1D7F1D801F911F08952A193B094C09A7
:104A20005D096E097F09800B910B08950024A7FD95
:104A300000942A1730054005500560057005800573
:104A400090050895A29FB001B39FC001A39F700D70
:104A5000811D1124911DB29F700D811D1124911D86
:064A60000895F894FFCF59
:104A6600FFFFFFFF00E1000000000000003162537D
:104A7600C4F5A697B988DBEA7D4C1F2E4372211038
:104A860087B6E5D4FACB98A93E0F5C6D86B7E4D518
:104A9600427320113F0E5D6CFBCA99A8C5F4A79618
:104AA600013063527C4D1E2FB889DAEB3D0C5F6EE8
:104AB600F9C89BAA84B5E6D7407122137E4F1C2DF8
:104AC600BA8BD8E9C7F6A59403326150BB8AD9E8F8
:104AD6007F4E1D2C02336051C6F7A495F8C99AABD8
:104AE6003C0D5E6F4170231285B4E7D67A4B1829C8
:104AF600BE8FDCEDC3F2A1900736655439085B6AB8
:104B0600FDCC9FAE80B1E2D344752617FCCD9EAF97
:104B160038095A6B4574271681B0E3D2BF8EDDEC97
:104B26007B4A192806376455C2F3A09147762514A7
:104B360083B2E1D0FECF9CAD3A0B58690435665777
:104B4600C0F1A293BD8CDFEE79481B2AC1F0A39277
:104B56000534675678491A2BBC8DDEEF82B3E0D157
:104B6600467724153B0A5968FFCE9DAC2D5E0000A2
:104B7600EBE1000008FC000080FF0000E1B7020046
:104B860016220100080401008000010000C1808196
:104B9600000000260F280E00010201030101010496
:104BA600010101010101010500000000FD024604AA
:104BB6001E031303640322034003000000002E09B2
:104BC6000109440AD708FA08E708D8080D0A006E52
:104BD600616E00696E66006F7666004E6F20534701
:104BE6005034302044657465637465642E204368D0
:104BF60065636B20636F6E6E656374696F6E732E8B
:104C0600004E6F20424D453238302044657465634E
:104C16007465642E20436865636B20636F6E6E65F2
:0C4C26006374696F6E732E003B00200069
:00000001FF
